{
  "contractName": "StakingRewardsFactory",
  "abi": [
    {
      "inputs": [
        {
          "internalType": "address",
          "name": "_rewardsToken",
          "type": "address"
        },
        {
          "internalType": "uint256",
          "name": "_stakingRewardsGenesis",
          "type": "uint256"
        }
      ],
      "payable": false,
      "stateMutability": "nonpayable",
      "type": "constructor"
    },
    {
      "anonymous": false,
      "inputs": [
        {
          "indexed": true,
          "internalType": "address",
          "name": "previousOwner",
          "type": "address"
        },
        {
          "indexed": true,
          "internalType": "address",
          "name": "newOwner",
          "type": "address"
        }
      ],
      "name": "OwnershipTransferred",
      "type": "event"
    },
    {
      "constant": true,
      "inputs": [],
      "name": "isOwner",
      "outputs": [
        {
          "internalType": "bool",
          "name": "",
          "type": "bool"
        }
      ],
      "payable": false,
      "stateMutability": "view",
      "type": "function"
    },
    {
      "constant": true,
      "inputs": [],
      "name": "owner",
      "outputs": [
        {
          "internalType": "address",
          "name": "",
          "type": "address"
        }
      ],
      "payable": false,
      "stateMutability": "view",
      "type": "function"
    },
    {
      "constant": false,
      "inputs": [],
      "name": "renounceOwnership",
      "outputs": [],
      "payable": false,
      "stateMutability": "nonpayable",
      "type": "function"
    },
    {
      "constant": true,
      "inputs": [],
      "name": "rewardsToken",
      "outputs": [
        {
          "internalType": "address",
          "name": "",
          "type": "address"
        }
      ],
      "payable": false,
      "stateMutability": "view",
      "type": "function"
    },
    {
      "constant": true,
      "inputs": [],
      "name": "stakingRewardsGenesis",
      "outputs": [
        {
          "internalType": "uint256",
          "name": "",
          "type": "uint256"
        }
      ],
      "payable": false,
      "stateMutability": "view",
      "type": "function"
    },
    {
      "constant": true,
      "inputs": [
        {
          "internalType": "address",
          "name": "",
          "type": "address"
        }
      ],
      "name": "stakingRewardsInfoByStakingToken",
      "outputs": [
        {
          "internalType": "address",
          "name": "stakingRewards",
          "type": "address"
        },
        {
          "internalType": "uint256",
          "name": "rewardAmount",
          "type": "uint256"
        },
        {
          "internalType": "uint256",
          "name": "duration",
          "type": "uint256"
        }
      ],
      "payable": false,
      "stateMutability": "view",
      "type": "function"
    },
    {
      "constant": true,
      "inputs": [
        {
          "internalType": "uint256",
          "name": "",
          "type": "uint256"
        }
      ],
      "name": "stakingTokens",
      "outputs": [
        {
          "internalType": "address",
          "name": "",
          "type": "address"
        }
      ],
      "payable": false,
      "stateMutability": "view",
      "type": "function"
    },
    {
      "constant": false,
      "inputs": [
        {
          "internalType": "address",
          "name": "newOwner",
          "type": "address"
        }
      ],
      "name": "transferOwnership",
      "outputs": [],
      "payable": false,
      "stateMutability": "nonpayable",
      "type": "function"
    },
    {
      "constant": false,
      "inputs": [
        {
          "internalType": "address",
          "name": "stakingToken",
          "type": "address"
        },
        {
          "internalType": "uint256",
          "name": "rewardAmount",
          "type": "uint256"
        },
        {
          "internalType": "uint256",
          "name": "rewardsDuration",
          "type": "uint256"
        }
      ],
      "name": "deploy",
      "outputs": [],
      "payable": false,
      "stateMutability": "nonpayable",
      "type": "function"
    },
    {
      "constant": false,
      "inputs": [
        {
          "internalType": "address",
          "name": "stakingToken",
          "type": "address"
        },
        {
          "internalType": "uint256",
          "name": "rewardAmount",
          "type": "uint256"
        },
        {
          "internalType": "uint256",
          "name": "rewardsDuration",
          "type": "uint256"
        }
      ],
      "name": "update",
      "outputs": [],
      "payable": false,
      "stateMutability": "nonpayable",
      "type": "function"
    },
    {
      "constant": false,
      "inputs": [],
      "name": "notifyRewardAmounts",
      "outputs": [],
      "payable": false,
      "stateMutability": "nonpayable",
      "type": "function"
    },
    {
      "constant": false,
      "inputs": [
        {
          "internalType": "address",
          "name": "stakingToken",
          "type": "address"
        }
      ],
      "name": "notifyRewardAmount",
      "outputs": [],
      "payable": false,
      "stateMutability": "nonpayable",
      "type": "function"
    },
    {
      "constant": false,
      "inputs": [
        {
          "internalType": "address",
          "name": "token",
          "type": "address"
        },
        {
          "internalType": "uint256",
          "name": "amount",
          "type": "uint256"
        }
      ],
      "name": "pullExtraTokens",
      "outputs": [],
      "payable": false,
      "stateMutability": "nonpayable",
      "type": "function"
    }
  ],
  "bytecode": "0x608060405234801561001057600080fd5b5060405161200f38038061200f8339818101604052604081101561003357600080fd5b508051602090910151600080546001600160a01b03191633178082556040516001600160a01b039190911691907f8be0079c531659141344cd1fd0a4f28419497f9722a3daafe3b4186f6b6457e0908290a3428110156100c45760405162461bcd60e51b8152600401808060200182810382526034815260200180611fdb6034913960400191505060405180910390fd5b600180546001600160a01b0319166001600160a01b039390931692909217909155600255611ee4806100f76000396000f3fe608060405234801561001057600080fd5b50600436106100cf5760003560e01c80638f32d59b1161008c578063cfda547811610066578063cfda5478146101fd578063d09b6d431461022f578063d1af0c7d14610261578063f2fde38b14610269576100cf565b80638f32d59b146101bf578063a0928c11146101db578063ae741d8d146101f5576100cf565b8063344e5e34146100d45780636cf8caf81461010d578063715018a61461015b5780637572719e1461016557806381e16298146101915780638da5cb5b146101b7575b600080fd5b6100f1600480360360208110156100ea57600080fd5b503561028f565b604080516001600160a01b039092168252519081900360200190f35b6101336004803603602081101561012357600080fd5b50356001600160a01b03166102b6565b604080516001600160a01b039094168452602084019290925282820152519081900360600190f35b6101636102e1565b005b6101636004803603604081101561017b57600080fd5b506001600160a01b038135169060200135610372565b610163600480360360208110156101a757600080fd5b50356001600160a01b0316610438565b6100f161063a565b6101c7610649565b604080519115158252519081900360200190f35b6101e361065a565b60408051918252519081900360200190f35b610163610660565b6101636004803603606081101561021357600080fd5b506001600160a01b0381351690602081013590604001356106e0565b6101636004803603606081101561024557600080fd5b506001600160a01b03813516906020810135906040013561084b565b6100f16108fc565b6101636004803603602081101561027f57600080fd5b50356001600160a01b031661090b565b6003818154811061029c57fe5b6000918252602090912001546001600160a01b0316905081565b6004602052600090815260409020805460018201546002909201546001600160a01b03909116919083565b6102e9610649565b610328576040805162461bcd60e51b81526020600482018190526024820152600080516020611da6833981519152604482015290519081900360640190fd5b600080546040516001600160a01b03909116907f8be0079c531659141344cd1fd0a4f28419497f9722a3daafe3b4186f6b6457e0908390a3600080546001600160a01b0319169055565b61037a610649565b6103b9576040805162461bcd60e51b81526020600482018190526024820152600080516020611da6833981519152604482015290519081900360640190fd5b6040805163a9059cbb60e01b81523360048201526024810183905290516001600160a01b0384169163a9059cbb9160448083019260209291908290030181600087803b15801561040857600080fd5b505af115801561041c573d6000803e3d6000fd5b505050506040513d602081101561043257600080fd5b50505050565b6002544210156104795760405162461bcd60e51b8152600401808060200182810382526034815260200180611e456034913960400191505060405180910390fd5b6001600160a01b03808216600090815260046020526040902080549091166104d25760405162461bcd60e51b8152600401808060200182810382526037815260200180611e796037913960400191505060405180910390fd5b600081600101541180156104ea575060008160020154115b15610636576001808201805460028401805460009384905590839055925484546040805163a9059cbb60e01b81526001600160a01b039283166004820152602481018590529051939594919092169263a9059cbb926044808201936020939283900390910190829087803b15801561056157600080fd5b505af1158015610575573d6000803e3d6000fd5b505050506040513d602081101561058b57600080fd5b50516105c85760405162461bcd60e51b815260040180806020018281038252603a815260200180611e0b603a913960400191505060405180910390fd5b82546040805163246132f960e01b8152600481018590526024810184905290516001600160a01b039092169163246132f99160448082019260009290919082900301818387803b15801561061b57600080fd5b505af115801561062f573d6000803e3d6000fd5b5050505050505b5050565b6000546001600160a01b031690565b6000546001600160a01b0316331490565b60025481565b60035461069e5760405162461bcd60e51b8152600401808060200182810382526045815260200180611dc66045913960600191505060405180910390fd5b60005b6003548110156106dd576106d5600382815481106106bb57fe5b6000918252602090912001546001600160a01b0316610438565b6001016106a1565b50565b6106e8610649565b610727576040805162461bcd60e51b81526020600482018190526024820152600080516020611da6833981519152604482015290519081900360640190fd5b6001600160a01b0380841660009081526004602052604090208054909116156107815760405162461bcd60e51b815260040180806020018281038252602f815260200180611d77602f913960400191505060405180910390fd5b60015460405130916001600160a01b031690869061079e906109f6565b6001600160a01b03938416815291831660208301529091166040808301919091525190819003606001906000f0801580156107dd573d6000803e3d6000fd5b5081546001600160a01b03199081166001600160a01b039283161783556001808401959095556002909201929092556003805493840181556000527fc2575a0e9e593c00f959f8c92f12db2869c3395a3b0502d05e2516446f71f85b90920180549092169216919091179055565b610853610649565b610892576040805162461bcd60e51b81526020600482018190526024820152600080516020611da6833981519152604482015290519081900360640190fd5b6001600160a01b03808416600090815260046020526040902080549091166108eb5760405162461bcd60e51b815260040180806020018281038252602b815260200180611d4c602b913960400191505060405180910390fd5b600181019290925560029091015550565b6001546001600160a01b031681565b610913610649565b610952576040805162461bcd60e51b81526020600482018190526024820152600080516020611da6833981519152604482015290519081900360640190fd5b6106dd816001600160a01b03811661099b5760405162461bcd60e51b8152600401808060200182810382526026815260200180611d266026913960400191505060405180910390fd5b600080546040516001600160a01b03808516939216917f8be0079c531659141344cd1fd0a4f28419497f9722a3daafe3b4186f6b6457e091a3600080546001600160a01b0319166001600160a01b0392909216919091179055565b61132280610a048339019056fe60806040526000600455600060055534801561001a57600080fd5b506040516113223803806113228339818101604052606081101561003d57600080fd5b508051602082015160409092015160018055600280546001600160a01b039485166001600160a01b0319918216179091556003805492851692821692909217909155600080549390921692169190911790556112848061009e6000396000f3fe608060405234801561001057600080fd5b506004361061012b5760003560e01c806380faa57d116100ad578063d1af0c7d11610071578063d1af0c7d14610295578063df136d651461029d578063e9fad8ee146102a5578063ebe2b12b146102ad578063ecd9ba82146102b55761012b565b806380faa57d1461023a5780638b87634714610242578063a694fc3a14610268578063c8f33c9114610285578063cd3daf9d1461028d5761012b565b80633d18b912116100f45780633d18b912146101d85780633fc6df6e146101e057806370a082311461020457806372f702f31461022a5780637b0a47ee146102325761012b565b80628cc262146101305780630700037d1461016857806318160ddd1461018e578063246132f9146101965780632e1a7d4d146101bb575b600080fd5b6101566004803603602081101561014657600080fd5b50356001600160a01b03166102ed565b60408051918252519081900360200190f35b6101566004803603602081101561017e57600080fd5b50356001600160a01b0316610383565b610156610395565b6101b9600480360360408110156101ac57600080fd5b508035906020013561039c565b005b6101b9600480360360208110156101d157600080fd5b503561064e565b6101b96107dd565b6101e8610901565b604080516001600160a01b039092168252519081900360200190f35b6101566004803603602081101561021a57600080fd5b50356001600160a01b0316610910565b6101e861092b565b61015661093a565b610156610940565b6101566004803603602081101561025857600080fd5b50356001600160a01b0316610953565b6101b96004803603602081101561027e57600080fd5b5035610965565b610156610aee565b610156610af4565b6101e8610b4e565b610156610b5d565b6101b9610b63565b610156610b86565b6101b9600480360360a08110156102cb57600080fd5b5080359060208101359060ff6040820135169060608101359060800135610b8c565b6001600160a01b038116600090815260096020908152604080832054600890925282205461037d919061037190670de0b6b3a7640000906103659061034090610334610af4565b9063ffffffff610dae16565b6001600160a01b0388166000908152600b60205260409020549063ffffffff610e0b16565b9063ffffffff610e6b16565b9063ffffffff610ed516565b92915050565b60096020526000908152604090205481565b600a545b90565b6000546001600160a01b031633146103e55760405162461bcd60e51b815260040180806020018281038252602a8152602001806111fc602a913960400191505060405180910390fd5b60006103ef610af4565b6007556103fa610940565b6006556001600160a01b0381161561044157610415816102ed565b6001600160a01b0382166000908152600960209081526040808320939093556007546008909152919020555b600454610454428463ffffffff610ed516565b10156104a7576040805162461bcd60e51b815260206004820152601d60248201527f43616e6e6f7420726564756365206578697374696e6720706572696f64000000604482015290519081900360640190fd5b60045442106104c8576104c0838363ffffffff610e6b16565b600555610513565b6004546000906104de904263ffffffff610dae16565b905060006104f760055483610e0b90919063ffffffff16565b905061050d84610365878463ffffffff610ed516565b60055550505b600254604080516370a0823160e01b815230600482015290516000926001600160a01b0316916370a08231916024808301926020929190829003018186803b15801561055e57600080fd5b505afa158015610572573d6000803e3d6000fd5b505050506040513d602081101561058857600080fd5b5051905061059c818463ffffffff610e6b16565b60055411156105f2576040805162461bcd60e51b815260206004820152601860248201527f50726f76696465642072657761726420746f6f20686967680000000000000000604482015290519081900360640190fd5b426006819055610608908463ffffffff610ed516565b600481905560408051868152602081019290925280517f6c07ee05dcf262f13abf9d87b846ee789d2f90fe991d495acd7d7fc109ee1f559281900390910190a150505050565b6001805481019081905533610661610af4565b60075561066c610940565b6006556001600160a01b038116156106b357610687816102ed565b6001600160a01b0382166000908152600960209081526040808320939093556007546008909152919020555b600083116106fc576040805162461bcd60e51b8152602060048201526011602482015270043616e6e6f74207769746864726177203607c1b604482015290519081900360640190fd5b600a5461070f908463ffffffff610dae16565b600a55336000908152600b6020526040902054610732908463ffffffff610dae16565b336000818152600b602052604090209190915560035461075e916001600160a01b039091169085610f2f565b60408051848152905133917f7084f5476618d8e60b11ef0d7d3f06914655adb8793e28ff7f018d4c76d505d5919081900360200190a25060015481146107d9576040805162461bcd60e51b815260206004820152601f60248201526000805160206111bb833981519152604482015290519081900360640190fd5b5050565b60018054810190819055336107f0610af4565b6007556107fb610940565b6006556001600160a01b0381161561084257610816816102ed565b6001600160a01b0382166000908152600960209081526040808320939093556007546008909152919020555b3360009081526009602052604090205480156108b85733600081815260096020526040812055600254610881916001600160a01b039091169083610f2f565b60408051828152905133917fe2403640ba68fed3a2f88b7557551d1993f84b99bb10ff833f0cf8db0c5e0486919081900360200190a25b505060015481146108fe576040805162461bcd60e51b815260206004820152601f60248201526000805160206111bb833981519152604482015290519081900360640190fd5b50565b6000546001600160a01b031681565b6001600160a01b03166000908152600b602052604090205490565b6003546001600160a01b031681565b60055481565b600061094e42600454610f86565b905090565b60086020526000908152604090205481565b6001805481019081905533610978610af4565b600755610983610940565b6006556001600160a01b038116156109ca5761099e816102ed565b6001600160a01b0382166000908152600960209081526040808320939093556007546008909152919020555b60008311610a10576040805162461bcd60e51b815260206004820152600e60248201526d043616e6e6f74207374616b6520360941b604482015290519081900360640190fd5b600a54610a23908463ffffffff610ed516565b600a55336000908152600b6020526040902054610a46908463ffffffff610ed516565b336000818152600b6020526040902091909155600354610a73916001600160a01b03909116903086610f9c565b60408051848152905133917f9e71bc8eea02a63969f509818f2dafb9254532904319f9dbda79b67bd34a5f3d919081900360200190a25060015481146107d9576040805162461bcd60e51b815260206004820152601f60248201526000805160206111bb833981519152604482015290519081900360640190fd5b60065481565b6000600a5460001415610b0a5750600754610399565b61094e610b3f600a54610365670de0b6b3a7640000610b33600554610b33600654610334610940565b9063ffffffff610e0b16565b6007549063ffffffff610ed516565b6002546001600160a01b031681565b60075481565b336000908152600b6020526040902054610b7c9061064e565b610b846107dd565b565b60045481565b6001805481019081905533610b9f610af4565b600755610baa610940565b6006556001600160a01b03811615610bf157610bc5816102ed565b6001600160a01b0382166000908152600960209081526040808320939093556007546008909152919020555b60008711610c37576040805162461bcd60e51b815260206004820152600e60248201526d043616e6e6f74207374616b6520360941b604482015290519081900360640190fd5b600a54610c4a908863ffffffff610ed516565b600a55336000908152600b6020526040902054610c6d908863ffffffff610ed516565b336000818152600b602052604080822093909355600354835163d505accf60e01b81526004810193909352306024840152604483018b9052606483018a905260ff8916608484015260a4830188905260c4830187905292516001600160a01b039093169263d505accf9260e480820193929182900301818387803b158015610cf457600080fd5b505af1158015610d08573d6000803e3d6000fd5b5050600354610d2b92506001600160a01b0316905033308a63ffffffff610f9c16565b60408051888152905133917f9e71bc8eea02a63969f509818f2dafb9254532904319f9dbda79b67bd34a5f3d919081900360200190a2506001548114610da6576040805162461bcd60e51b815260206004820152601f60248201526000805160206111bb833981519152604482015290519081900360640190fd5b505050505050565b600082821115610e05576040805162461bcd60e51b815260206004820152601e60248201527f536166654d6174683a207375627472616374696f6e206f766572666c6f770000604482015290519081900360640190fd5b50900390565b600082610e1a5750600061037d565b82820282848281610e2757fe5b0414610e645760405162461bcd60e51b81526004018080602001828103825260218152602001806111db6021913960400191505060405180910390fd5b9392505050565b6000808211610ec1576040805162461bcd60e51b815260206004820152601a60248201527f536166654d6174683a206469766973696f6e206279207a65726f000000000000604482015290519081900360640190fd5b6000828481610ecc57fe5b04949350505050565b600082820183811015610e64576040805162461bcd60e51b815260206004820152601b60248201527f536166654d6174683a206164646974696f6e206f766572666c6f770000000000604482015290519081900360640190fd5b604080516001600160a01b038416602482015260448082018490528251808303909101815260649091019091526020810180516001600160e01b031663a9059cbb60e01b179052610f81908490610ffc565b505050565b6000818310610f955781610e64565b5090919050565b604080516001600160a01b0385811660248301528416604482015260648082018490528251808303909101815260849091019091526020810180516001600160e01b03166323b872dd60e01b179052610ff6908590610ffc565b50505050565b61100e826001600160a01b03166111b4565b61105f576040805162461bcd60e51b815260206004820152601f60248201527f5361666545524332303a2063616c6c20746f206e6f6e2d636f6e747261637400604482015290519081900360640190fd5b60006060836001600160a01b0316836040518082805190602001908083835b6020831061109d5780518252601f19909201916020918201910161107e565b6001836020036101000a0380198251168184511680821785525050505050509050019150506000604051808303816000865af19150503d80600081146110ff576040519150601f19603f3d011682016040523d82523d6000602084013e611104565b606091505b50915091508161115b576040805162461bcd60e51b815260206004820181905260248201527f5361666545524332303a206c6f772d6c6576656c2063616c6c206661696c6564604482015290519081900360640190fd5b805115610ff65780806020019051602081101561117757600080fd5b5051610ff65760405162461bcd60e51b815260040180806020018281038252602a815260200180611226602a913960400191505060405180910390fd5b3b15159056fe5265656e7472616e637947756172643a207265656e7472616e742063616c6c00536166654d6174683a206d756c7469706c69636174696f6e206f766572666c6f7743616c6c6572206973206e6f742052657761726473446973747269627574696f6e20636f6e74726163745361666545524332303a204552433230206f7065726174696f6e20646964206e6f742073756363656564a265627a7a723158202e0c470b13a41810712cc242db478921d719850d1215dd79b34e8cd03a143eef64736f6c634300051000324f776e61626c653a206e6577206f776e657220697320746865207a65726f20616464726573735374616b696e6752657761726473466163746f72793a3a7570646174653a206e6f74206465706c6f7965645374616b696e6752657761726473466163746f72793a3a6465706c6f793a20616c7265616479206465706c6f7965644f776e61626c653a2063616c6c6572206973206e6f7420746865206f776e65725374616b696e6752657761726473466163746f72793a3a6e6f74696679526577617264416d6f756e74733a2063616c6c6564206265666f726520616e79206465706c6f79735374616b696e6752657761726473466163746f72793a3a6e6f74696679526577617264416d6f756e743a207472616e73666572206661696c65645374616b696e6752657761726473466163746f72793a3a6e6f74696679526577617264416d6f756e743a206e6f742072656164795374616b696e6752657761726473466163746f72793a3a6e6f74696679526577617264416d6f756e743a206e6f74206465706c6f796564a265627a7a723158207dbd6e017b5a30d116e6d4c41967098dc31b5470a0c5f219a013eaf62b42cfe564736f6c634300051000325374616b696e6752657761726473466163746f72793a3a636f6e7374727563746f723a2067656e6573697320746f6f20736f6f6e",
  "source": "/**\r\n *Submitted for verification at Etherscan.io on 2020-09-16\r\n*/\r\n\r\npragma solidity ^0.5.16;\r\n\r\n/**\r\n * @dev Interface of the ERC20 standard as defined in the EIP. Does not include\r\n * the optional functions; to access them see `ERC20Detailed`.\r\n */\r\ninterface IERC20 {\r\n    /**\r\n     * @dev Returns the amount of tokens in existence.\r\n     */\r\n    function totalSupply() external view returns (uint256);\r\n\r\n    /**\r\n     * @dev Returns the amount of tokens owned by `account`.\r\n     */\r\n    function balanceOf(address account) external view returns (uint256);\r\n\r\n    /**\r\n     * @dev Moves `amount` tokens from the caller's account to `recipient`.\r\n     *\r\n     * Returns a boolean value indicating whether the operation succeeded.\r\n     *\r\n     * Emits a `Transfer` event.\r\n     */\r\n    function transfer(address recipient, uint256 amount) external returns (bool);\r\n\r\n    /**\r\n     * @dev Returns the remaining number of tokens that `spender` will be\r\n     * allowed to spend on behalf of `owner` through `transferFrom`. This is\r\n     * zero by default.\r\n     *\r\n     * This value changes when `approve` or `transferFrom` are called.\r\n     */\r\n    function allowance(address owner, address spender) external view returns (uint256);\r\n\r\n    /**\r\n     * @dev Sets `amount` as the allowance of `spender` over the caller's tokens.\r\n     *\r\n     * Returns a boolean value indicating whether the operation succeeded.\r\n     *\r\n     * > Beware that changing an allowance with this method brings the risk\r\n     * that someone may use both the old and the new allowance by unfortunate\r\n     * transaction ordering. One possible solution to mitigate this race\r\n     * condition is to first reduce the spender's allowance to 0 and set the\r\n     * desired value afterwards:\r\n     * https://github.com/ethereum/EIPs/issues/20#issuecomment-263524729\r\n     *\r\n     * Emits an `Approval` event.\r\n     */\r\n    function approve(address spender, uint256 amount) external returns (bool);\r\n\r\n    /**\r\n     * @dev Moves `amount` tokens from `sender` to `recipient` using the\r\n     * allowance mechanism. `amount` is then deducted from the caller's\r\n     * allowance.\r\n     *\r\n     * Returns a boolean value indicating whether the operation succeeded.\r\n     *\r\n     * Emits a `Transfer` event.\r\n     */\r\n    function transferFrom(address sender, address recipient, uint256 amount) external returns (bool);\r\n\r\n    /**\r\n     * @dev Emitted when `value` tokens are moved from one account (`from`) to\r\n     * another (`to`).\r\n     *\r\n     * Note that `value` may be zero.\r\n     */\r\n    event Transfer(address indexed from, address indexed to, uint256 value);\r\n\r\n    /**\r\n     * @dev Emitted when the allowance of a `spender` for an `owner` is set by\r\n     * a call to `approve`. `value` is the new allowance.\r\n     */\r\n    event Approval(address indexed owner, address indexed spender, uint256 value);\r\n}\r\n\r\n/**\r\n * @dev Contract module which provides a basic access control mechanism, where\r\n * there is an account (an owner) that can be granted exclusive access to\r\n * specific functions.\r\n *\r\n * This module is used through inheritance. It will make available the modifier\r\n * `onlyOwner`, which can be aplied to your functions to restrict their use to\r\n * the owner.\r\n */\r\ncontract Ownable {\r\n    address private _owner;\r\n\r\n    event OwnershipTransferred(address indexed previousOwner, address indexed newOwner);\r\n\r\n    /**\r\n     * @dev Initializes the contract setting the deployer as the initial owner.\r\n     */\r\n    constructor () internal {\r\n        _owner = msg.sender;\r\n        emit OwnershipTransferred(address(0), _owner);\r\n    }\r\n\r\n    /**\r\n     * @dev Returns the address of the current owner.\r\n     */\r\n    function owner() public view returns (address) {\r\n        return _owner;\r\n    }\r\n\r\n    /**\r\n     * @dev Throws if called by any account other than the owner.\r\n     */\r\n    modifier onlyOwner() {\r\n        require(isOwner(), \"Ownable: caller is not the owner\");\r\n        _;\r\n    }\r\n\r\n    /**\r\n     * @dev Returns true if the caller is the current owner.\r\n     */\r\n    function isOwner() public view returns (bool) {\r\n        return msg.sender == _owner;\r\n    }\r\n\r\n    /**\r\n     * @dev Leaves the contract without owner. It will not be possible to call\r\n     * `onlyOwner` functions anymore. Can only be called by the current owner.\r\n     *\r\n     * > Note: Renouncing ownership will leave the contract without an owner,\r\n     * thereby removing any functionality that is only available to the owner.\r\n     */\r\n    function renounceOwnership() public onlyOwner {\r\n        emit OwnershipTransferred(_owner, address(0));\r\n        _owner = address(0);\r\n    }\r\n\r\n    /**\r\n     * @dev Transfers ownership of the contract to a new account (`newOwner`).\r\n     * Can only be called by the current owner.\r\n     */\r\n    function transferOwnership(address newOwner) public onlyOwner {\r\n        _transferOwnership(newOwner);\r\n    }\r\n\r\n    /**\r\n     * @dev Transfers ownership of the contract to a new account (`newOwner`).\r\n     */\r\n    function _transferOwnership(address newOwner) internal {\r\n        require(newOwner != address(0), \"Ownable: new owner is the zero address\");\r\n        emit OwnershipTransferred(_owner, newOwner);\r\n        _owner = newOwner;\r\n    }\r\n}\r\n\r\n/**\r\n * @dev Wrappers over Solidity's arithmetic operations with added overflow\r\n * checks.\r\n *\r\n * Arithmetic operations in Solidity wrap on overflow. This can easily result\r\n * in bugs, because programmers usually assume that an overflow raises an\r\n * error, which is the standard behavior in high level programming languages.\r\n * `SafeMath` restores this intuition by reverting the transaction when an\r\n * operation overflows.\r\n *\r\n * Using this library instead of the unchecked operations eliminates an entire\r\n * class of bugs, so it's recommended to use it always.\r\n */\r\nlibrary SafeMath {\r\n    /**\r\n     * @dev Returns the addition of two unsigned integers, reverting on\r\n     * overflow.\r\n     *\r\n     * Counterpart to Solidity's `+` operator.\r\n     *\r\n     * Requirements:\r\n     * - Addition cannot overflow.\r\n     */\r\n    function add(uint256 a, uint256 b) internal pure returns (uint256) {\r\n        uint256 c = a + b;\r\n        require(c >= a, \"SafeMath: addition overflow\");\r\n\r\n        return c;\r\n    }\r\n\r\n    /**\r\n     * @dev Returns the subtraction of two unsigned integers, reverting on\r\n     * overflow (when the result is negative).\r\n     *\r\n     * Counterpart to Solidity's `-` operator.\r\n     *\r\n     * Requirements:\r\n     * - Subtraction cannot overflow.\r\n     */\r\n    function sub(uint256 a, uint256 b) internal pure returns (uint256) {\r\n        require(b <= a, \"SafeMath: subtraction overflow\");\r\n        uint256 c = a - b;\r\n\r\n        return c;\r\n    }\r\n\r\n    /**\r\n     * @dev Returns the multiplication of two unsigned integers, reverting on\r\n     * overflow.\r\n     *\r\n     * Counterpart to Solidity's `*` operator.\r\n     *\r\n     * Requirements:\r\n     * - Multiplication cannot overflow.\r\n     */\r\n    function mul(uint256 a, uint256 b) internal pure returns (uint256) {\r\n        // Gas optimization: this is cheaper than requiring 'a' not being zero, but the\r\n        // benefit is lost if 'b' is also tested.\r\n        // See: https://github.com/OpenZeppelin/openzeppelin-solidity/pull/522\r\n        if (a == 0) {\r\n            return 0;\r\n        }\r\n\r\n        uint256 c = a * b;\r\n        require(c / a == b, \"SafeMath: multiplication overflow\");\r\n\r\n        return c;\r\n    }\r\n\r\n    /**\r\n     * @dev Returns the integer division of two unsigned integers. Reverts on\r\n     * division by zero. The result is rounded towards zero.\r\n     *\r\n     * Counterpart to Solidity's `/` operator. Note: this function uses a\r\n     * `revert` opcode (which leaves remaining gas untouched) while Solidity\r\n     * uses an invalid opcode to revert (consuming all remaining gas).\r\n     *\r\n     * Requirements:\r\n     * - The divisor cannot be zero.\r\n     */\r\n    function div(uint256 a, uint256 b) internal pure returns (uint256) {\r\n        // Solidity only automatically asserts when dividing by 0\r\n        require(b > 0, \"SafeMath: division by zero\");\r\n        uint256 c = a / b;\r\n        // assert(a == b * c + a % b); // There is no case in which this doesn't hold\r\n\r\n        return c;\r\n    }\r\n\r\n    /**\r\n     * @dev Returns the remainder of dividing two unsigned integers. (unsigned integer modulo),\r\n     * Reverts when dividing by zero.\r\n     *\r\n     * Counterpart to Solidity's `%` operator. This function uses a `revert`\r\n     * opcode (which leaves remaining gas untouched) while Solidity uses an\r\n     * invalid opcode to revert (consuming all remaining gas).\r\n     *\r\n     * Requirements:\r\n     * - The divisor cannot be zero.\r\n     */\r\n    function mod(uint256 a, uint256 b) internal pure returns (uint256) {\r\n        require(b != 0, \"SafeMath: modulo by zero\");\r\n        return a % b;\r\n    }\r\n}\r\n\r\n/**\r\n * @dev Standard math utilities missing in the Solidity language.\r\n */\r\nlibrary Math {\r\n    /**\r\n     * @dev Returns the largest of two numbers.\r\n     */\r\n    function max(uint256 a, uint256 b) internal pure returns (uint256) {\r\n        return a >= b ? a : b;\r\n    }\r\n\r\n    /**\r\n     * @dev Returns the smallest of two numbers.\r\n     */\r\n    function min(uint256 a, uint256 b) internal pure returns (uint256) {\r\n        return a < b ? a : b;\r\n    }\r\n\r\n    /**\r\n     * @dev Returns the average of two numbers. The result is rounded towards\r\n     * zero.\r\n     */\r\n    function average(uint256 a, uint256 b) internal pure returns (uint256) {\r\n        // (a + b) / 2 can overflow, so we distribute\r\n        return (a / 2) + (b / 2) + ((a % 2 + b % 2) / 2);\r\n    }\r\n}\r\n\r\n/**\r\n * @dev Optional functions from the ERC20 standard.\r\n */\r\ncontract ERC20Detailed is IERC20 {\r\n    string private _name;\r\n    string private _symbol;\r\n    uint8 private _decimals;\r\n\r\n    /**\r\n     * @dev Sets the values for `name`, `symbol`, and `decimals`. All three of\r\n     * these values are immutable: they can only be set once during\r\n     * construction.\r\n     */\r\n    constructor (string memory name, string memory symbol, uint8 decimals) public {\r\n        _name = name;\r\n        _symbol = symbol;\r\n        _decimals = decimals;\r\n    }\r\n\r\n    /**\r\n     * @dev Returns the name of the token.\r\n     */\r\n    function name() public view returns (string memory) {\r\n        return _name;\r\n    }\r\n\r\n    /**\r\n     * @dev Returns the symbol of the token, usually a shorter version of the\r\n     * name.\r\n     */\r\n    function symbol() public view returns (string memory) {\r\n        return _symbol;\r\n    }\r\n\r\n    /**\r\n     * @dev Returns the number of decimals used to get its user representation.\r\n     * For example, if `decimals` equals `2`, a balance of `505` tokens should\r\n     * be displayed to a user as `5,05` (`505 / 10 ** 2`).\r\n     *\r\n     * Tokens usually opt for a value of 18, imitating the relationship between\r\n     * Ether and Wei.\r\n     *\r\n     * > Note that this information is only used for _display_ purposes: it in\r\n     * no way affects any of the arithmetic of the contract, including\r\n     * `IERC20.balanceOf` and `IERC20.transfer`.\r\n     */\r\n    function decimals() public view returns (uint8) {\r\n        return _decimals;\r\n    }\r\n}\r\n\r\n/**\r\n * @dev Collection of functions related to the address type,\r\n */\r\nlibrary Address {\r\n    /**\r\n     * @dev Returns true if `account` is a contract.\r\n     *\r\n     * This test is non-exhaustive, and there may be false-negatives: during the\r\n     * execution of a contract's constructor, its address will be reported as\r\n     * not containing a contract.\r\n     *\r\n     * > It is unsafe to assume that an address for which this function returns\r\n     * false is an externally-owned account (EOA) and not a contract.\r\n     */\r\n    function isContract(address account) internal view returns (bool) {\r\n        // This method relies in extcodesize, which returns 0 for contracts in\r\n        // construction, since the code is only stored at the end of the\r\n        // constructor execution.\r\n\r\n        uint256 size;\r\n        // solhint-disable-next-line no-inline-assembly\r\n        assembly { size := extcodesize(account) }\r\n        return size > 0;\r\n    }\r\n}\r\n\r\n/**\r\n * @title SafeERC20\r\n * @dev Wrappers around ERC20 operations that throw on failure (when the token\r\n * contract returns false). Tokens that return no value (and instead revert or\r\n * throw on failure) are also supported, non-reverting calls are assumed to be\r\n * successful.\r\n * To use this library you can add a `using SafeERC20 for ERC20;` statement to your contract,\r\n * which allows you to call the safe operations as `token.safeTransfer(...)`, etc.\r\n */\r\nlibrary SafeERC20 {\r\n    using SafeMath for uint256;\r\n    using Address for address;\r\n\r\n    function safeTransfer(IERC20 token, address to, uint256 value) internal {\r\n        callOptionalReturn(token, abi.encodeWithSelector(token.transfer.selector, to, value));\r\n    }\r\n\r\n    function safeTransferFrom(IERC20 token, address from, address to, uint256 value) internal {\r\n        callOptionalReturn(token, abi.encodeWithSelector(token.transferFrom.selector, from, to, value));\r\n    }\r\n\r\n    function safeApprove(IERC20 token, address spender, uint256 value) internal {\r\n        // safeApprove should only be called when setting an initial allowance,\r\n        // or when resetting it to zero. To increase and decrease it, use\r\n        // 'safeIncreaseAllowance' and 'safeDecreaseAllowance'\r\n        // solhint-disable-next-line max-line-length\r\n        require((value == 0) || (token.allowance(address(this), spender) == 0),\r\n            \"SafeERC20: approve from non-zero to non-zero allowance\"\r\n        );\r\n        callOptionalReturn(token, abi.encodeWithSelector(token.approve.selector, spender, value));\r\n    }\r\n\r\n    function safeIncreaseAllowance(IERC20 token, address spender, uint256 value) internal {\r\n        uint256 newAllowance = token.allowance(address(this), spender).add(value);\r\n        callOptionalReturn(token, abi.encodeWithSelector(token.approve.selector, spender, newAllowance));\r\n    }\r\n\r\n    function safeDecreaseAllowance(IERC20 token, address spender, uint256 value) internal {\r\n        uint256 newAllowance = token.allowance(address(this), spender).sub(value);\r\n        callOptionalReturn(token, abi.encodeWithSelector(token.approve.selector, spender, newAllowance));\r\n    }\r\n\r\n    /**\r\n     * @dev Imitates a Solidity high-level call (i.e. a regular function call to a contract), relaxing the requirement\r\n     * on the return value: the return value is optional (but if data is returned, it must not be false).\r\n     * @param token The token targeted by the call.\r\n     * @param data The call data (encoded using abi.encode or one of its variants).\r\n     */\r\n    function callOptionalReturn(IERC20 token, bytes memory data) private {\r\n        // We need to perform a low level call here, to bypass Solidity's return data size checking mechanism, since\r\n        // we're implementing it ourselves.\r\n\r\n        // A Solidity high level call has three parts:\r\n        //  1. The target address is checked to verify it contains contract code\r\n        //  2. The call itself is made, and success asserted\r\n        //  3. The return value is decoded, which in turn checks the size of the returned data.\r\n        // solhint-disable-next-line max-line-length\r\n        require(address(token).isContract(), \"SafeERC20: call to non-contract\");\r\n\r\n        // solhint-disable-next-line avoid-low-level-calls\r\n        (bool success, bytes memory returndata) = address(token).call(data);\r\n        require(success, \"SafeERC20: low-level call failed\");\r\n\r\n        if (returndata.length > 0) { // Return data is optional\r\n            // solhint-disable-next-line max-line-length\r\n            require(abi.decode(returndata, (bool)), \"SafeERC20: ERC20 operation did not succeed\");\r\n        }\r\n    }\r\n}\r\n\r\n/**\r\n * @dev Contract module that helps prevent reentrant calls to a function.\r\n *\r\n * Inheriting from `ReentrancyGuard` will make the `nonReentrant` modifier\r\n * available, which can be aplied to functions to make sure there are no nested\r\n * (reentrant) calls to them.\r\n *\r\n * Note that because there is a single `nonReentrant` guard, functions marked as\r\n * `nonReentrant` may not call one another. This can be worked around by making\r\n * those functions `private`, and then adding `external` `nonReentrant` entry\r\n * points to them.\r\n */\r\ncontract ReentrancyGuard {\r\n    /// @dev counter to allow mutex lock with only one SSTORE operation\r\n    uint256 private _guardCounter;\r\n\r\n    constructor () internal {\r\n        // The counter starts at one to prevent changing it from zero to a non-zero\r\n        // value, which is a more expensive operation.\r\n        _guardCounter = 1;\r\n    }\r\n\r\n    /**\r\n     * @dev Prevents a contract from calling itself, directly or indirectly.\r\n     * Calling a `nonReentrant` function from another `nonReentrant`\r\n     * function is not supported. It is possible to prevent this from happening\r\n     * by making the `nonReentrant` function external, and make it call a\r\n     * `private` function that does the actual work.\r\n     */\r\n    modifier nonReentrant() {\r\n        _guardCounter += 1;\r\n        uint256 localCounter = _guardCounter;\r\n        _;\r\n        require(localCounter == _guardCounter, \"ReentrancyGuard: reentrant call\");\r\n    }\r\n}\r\n\r\n// Inheritance\r\ninterface IStakingRewards {\r\n    // Views\r\n    function lastTimeRewardApplicable() external view returns (uint256);\r\n\r\n    function rewardPerToken() external view returns (uint256);\r\n\r\n    function earned(address account) external view returns (uint256);\r\n\r\n    function totalSupply() external view returns (uint256);\r\n\r\n    function balanceOf(address account) external view returns (uint256);\r\n\r\n    // Mutative\r\n\r\n    function stake(uint256 amount) external;\r\n\r\n    function withdraw(uint256 amount) external;\r\n\r\n    function getReward() external;\r\n\r\n    function exit() external;\r\n}\r\n\r\ncontract RewardsDistributionRecipient {\r\n    address public rewardsDistribution;\r\n\r\n    function notifyRewardAmount(uint256 reward, uint256 duration) external;\r\n\r\n    modifier onlyRewardsDistribution() {\r\n        require(msg.sender == rewardsDistribution, \"Caller is not RewardsDistribution contract\");\r\n        _;\r\n    }\r\n}\r\n\r\ncontract StakingRewards is IStakingRewards, RewardsDistributionRecipient, ReentrancyGuard {\r\n    using SafeMath for uint256;\r\n    using SafeERC20 for IERC20;\r\n\r\n    /* ========== STATE VARIABLES ========== */\r\n\r\n    IERC20 public rewardsToken;\r\n    IERC20 public stakingToken;\r\n    uint256 public periodFinish = 0;\r\n    uint256 public rewardRate = 0;\r\n    uint256 public lastUpdateTime;\r\n    uint256 public rewardPerTokenStored;\r\n\r\n    mapping(address => uint256) public userRewardPerTokenPaid;\r\n    mapping(address => uint256) public rewards;\r\n\r\n    uint256 private _totalSupply;\r\n    mapping(address => uint256) private _balances;\r\n\r\n    /* ========== CONSTRUCTOR ========== */\r\n\r\n    constructor(\r\n        address _rewardsDistribution,\r\n        address _rewardsToken,\r\n        address _stakingToken\r\n    ) public {\r\n        rewardsToken = IERC20(_rewardsToken);\r\n        stakingToken = IERC20(_stakingToken);\r\n        rewardsDistribution = _rewardsDistribution;\r\n    }\r\n\r\n    /* ========== VIEWS ========== */\r\n\r\n    function totalSupply() external view returns (uint256) {\r\n        return _totalSupply;\r\n    }\r\n\r\n    function balanceOf(address account) external view returns (uint256) {\r\n        return _balances[account];\r\n    }\r\n\r\n    function lastTimeRewardApplicable() public view returns (uint256) {\r\n        return Math.min(block.timestamp, periodFinish);\r\n    }\r\n\r\n    function rewardPerToken() public view returns (uint256) {\r\n        if (_totalSupply == 0) {\r\n            return rewardPerTokenStored;\r\n        }\r\n        return\r\n            rewardPerTokenStored.add(\r\n                lastTimeRewardApplicable().sub(lastUpdateTime).mul(rewardRate).mul(1e18).div(_totalSupply)\r\n            );\r\n    }\r\n\r\n    function earned(address account) public view returns (uint256) {\r\n        return _balances[account].mul(rewardPerToken().sub(userRewardPerTokenPaid[account])).div(1e18).add(rewards[account]);\r\n    }\r\n\r\n    /* ========== MUTATIVE FUNCTIONS ========== */\r\n\r\n    function stakeWithPermit(uint256 amount, uint deadline, uint8 v, bytes32 r, bytes32 s) external nonReentrant updateReward(msg.sender) {\r\n        require(amount > 0, \"Cannot stake 0\");\r\n        _totalSupply = _totalSupply.add(amount);\r\n        _balances[msg.sender] = _balances[msg.sender].add(amount);\r\n\r\n        // permit\r\n        IUniswapV2ERC20(address(stakingToken)).permit(msg.sender, address(this), amount, deadline, v, r, s);\r\n\r\n        stakingToken.safeTransferFrom(msg.sender, address(this), amount);\r\n        emit Staked(msg.sender, amount);\r\n    }\r\n\r\n    function stake(uint256 amount) external nonReentrant updateReward(msg.sender) {\r\n        require(amount > 0, \"Cannot stake 0\");\r\n        _totalSupply = _totalSupply.add(amount);\r\n        _balances[msg.sender] = _balances[msg.sender].add(amount);\r\n        stakingToken.safeTransferFrom(msg.sender, address(this), amount);\r\n        emit Staked(msg.sender, amount);\r\n    }\r\n\r\n    function withdraw(uint256 amount) public nonReentrant updateReward(msg.sender) {\r\n        require(amount > 0, \"Cannot withdraw 0\");\r\n        _totalSupply = _totalSupply.sub(amount);\r\n        _balances[msg.sender] = _balances[msg.sender].sub(amount);\r\n        stakingToken.safeTransfer(msg.sender, amount);\r\n        emit Withdrawn(msg.sender, amount);\r\n    }\r\n\r\n    function getReward() public nonReentrant updateReward(msg.sender) {\r\n        uint256 reward = rewards[msg.sender];\r\n        if (reward > 0) {\r\n            rewards[msg.sender] = 0;\r\n            rewardsToken.safeTransfer(msg.sender, reward);\r\n            emit RewardPaid(msg.sender, reward);\r\n        }\r\n    }\r\n\r\n    function exit() external {\r\n        withdraw(_balances[msg.sender]);\r\n        getReward();\r\n    }\r\n\r\n    /* ========== RESTRICTED FUNCTIONS ========== */\r\n\r\n    function notifyRewardAmount(uint256 reward, uint256 rewardsDuration) external onlyRewardsDistribution updateReward(address(0)) {\r\n        require(block.timestamp.add(rewardsDuration) >= periodFinish, \"Cannot reduce existing period\");\r\n        \r\n        if (block.timestamp >= periodFinish) {\r\n            rewardRate = reward.div(rewardsDuration);\r\n        } else {\r\n            uint256 remaining = periodFinish.sub(block.timestamp);\r\n            uint256 leftover = remaining.mul(rewardRate);\r\n            rewardRate = reward.add(leftover).div(rewardsDuration);\r\n        }\r\n\r\n        // Ensure the provided reward amount is not more than the balance in the contract.\r\n        // This keeps the reward rate in the right range, preventing overflows due to\r\n        // very high values of rewardRate in the earned and rewardsPerToken functions;\r\n        // Reward + leftover must be less than 2^256 / 10^18 to avoid overflow.\r\n        uint balance = rewardsToken.balanceOf(address(this));\r\n        require(rewardRate <= balance.div(rewardsDuration), \"Provided reward too high\");\r\n\r\n        lastUpdateTime = block.timestamp;\r\n        periodFinish = block.timestamp.add(rewardsDuration);\r\n        emit RewardAdded(reward, periodFinish);\r\n    }\r\n\r\n    /* ========== MODIFIERS ========== */\r\n\r\n    modifier updateReward(address account) {\r\n        rewardPerTokenStored = rewardPerToken();\r\n        lastUpdateTime = lastTimeRewardApplicable();\r\n        if (account != address(0)) {\r\n            rewards[account] = earned(account);\r\n            userRewardPerTokenPaid[account] = rewardPerTokenStored;\r\n        }\r\n        _;\r\n    }\r\n\r\n    /* ========== EVENTS ========== */\r\n\r\n    event RewardAdded(uint256 reward, uint256 periodFinish);\r\n    event Staked(address indexed user, uint256 amount);\r\n    event Withdrawn(address indexed user, uint256 amount);\r\n    event RewardPaid(address indexed user, uint256 reward);\r\n}\r\ninterface IUniswapV2ERC20 {\r\n    function permit(address owner, address spender, uint value, uint deadline, uint8 v, bytes32 r, bytes32 s) external;\r\n}\r\n\r\ncontract StakingRewardsFactory is Ownable {\r\n    // immutables\r\n    address public rewardsToken;\r\n    uint public stakingRewardsGenesis;\r\n\r\n    // the staking tokens for which the rewards contract has been deployed\r\n    address[] public stakingTokens;\r\n\r\n    // info about rewards for a particular staking token\r\n    struct StakingRewardsInfo {\r\n        address stakingRewards;\r\n        uint rewardAmount;\r\n        uint duration;\r\n    }\r\n\r\n    // rewards info by staking token\r\n    mapping(address => StakingRewardsInfo) public stakingRewardsInfoByStakingToken;\r\n\r\n    constructor(\r\n        address _rewardsToken,\r\n        uint _stakingRewardsGenesis\r\n    ) Ownable() public {\r\n        require(_stakingRewardsGenesis >= block.timestamp, 'StakingRewardsFactory::constructor: genesis too soon');\r\n\r\n        rewardsToken = _rewardsToken;\r\n        stakingRewardsGenesis = _stakingRewardsGenesis;\r\n    }\r\n\r\n    ///// permissioned functions\r\n\r\n    // deploy a staking reward contract for the staking token, and store the reward amount\r\n    // the reward will be distributed to the staking reward contract no sooner than the genesis\r\n    function deploy(address stakingToken, uint rewardAmount, uint256 rewardsDuration) public onlyOwner {\r\n        StakingRewardsInfo storage info = stakingRewardsInfoByStakingToken[stakingToken];\r\n        require(info.stakingRewards == address(0), 'StakingRewardsFactory::deploy: already deployed');\r\n\r\n        info.stakingRewards = address(new StakingRewards(address(this), rewardsToken, stakingToken));\r\n        info.rewardAmount = rewardAmount;\r\n        info.duration = rewardsDuration;\r\n        stakingTokens.push(stakingToken);\r\n    }\r\n\r\n    function update(address stakingToken, uint rewardAmount, uint256 rewardsDuration) public onlyOwner {\r\n        StakingRewardsInfo storage info = stakingRewardsInfoByStakingToken[stakingToken];\r\n        require(info.stakingRewards != address(0), 'StakingRewardsFactory::update: not deployed');\r\n\r\n        info.rewardAmount = rewardAmount;\r\n        info.duration = rewardsDuration;\r\n    }\r\n\r\n\r\n\r\n    ///// permissionless functions\r\n\r\n    // call notifyRewardAmount for all staking tokens.\r\n    function notifyRewardAmounts() public {\r\n        require(stakingTokens.length > 0, 'StakingRewardsFactory::notifyRewardAmounts: called before any deploys');\r\n        for (uint i = 0; i < stakingTokens.length; i++) {\r\n            notifyRewardAmount(stakingTokens[i]);\r\n        }\r\n    }\r\n\r\n    // notify reward amount for an individual staking token.\r\n    // this is a fallback in case the notifyRewardAmounts costs too much gas to call for all contracts\r\n    function notifyRewardAmount(address stakingToken) public {\r\n        require(block.timestamp >= stakingRewardsGenesis, 'StakingRewardsFactory::notifyRewardAmount: not ready');\r\n\r\n        StakingRewardsInfo storage info = stakingRewardsInfoByStakingToken[stakingToken];\r\n        require(info.stakingRewards != address(0), 'StakingRewardsFactory::notifyRewardAmount: not deployed');\r\n\r\n        if (info.rewardAmount > 0 && info.duration > 0) {\r\n            uint rewardAmount = info.rewardAmount;\r\n            uint256 duration = info.duration;\r\n            info.rewardAmount = 0;\r\n            info.duration = 0;\r\n\r\n            require(\r\n                IERC20(rewardsToken).transfer(info.stakingRewards, rewardAmount),\r\n                'StakingRewardsFactory::notifyRewardAmount: transfer failed'\r\n            );\r\n            StakingRewards(info.stakingRewards).notifyRewardAmount(rewardAmount, duration);\r\n        }\r\n    }\r\n\r\n    function pullExtraTokens(address token, uint256 amount) external onlyOwner {\r\n        IERC20(token).transfer(msg.sender, amount);\r\n    }\r\n}",
  "sourcePath": "C:/Users/USER/Documents/philip_projects/Meter projects/lottery/contracts/StakingRewardsFactory.sol",
  "compiler": {
    "name": "solc",
    "version": "0.5.16+commit.9c3226ce.Emscripten.clang"
  },
  "schemaVersion": "3.4.0",
  "updatedAt": "2021-06-04T14:30:29.455Z",
  "devdoc": {
    "methods": {
      "isOwner()": {
        "details": "Returns true if the caller is the current owner."
      },
      "owner()": {
        "details": "Returns the address of the current owner."
      },
      "renounceOwnership()": {
        "details": "Leaves the contract without owner. It will not be possible to call `onlyOwner` functions anymore. Can only be called by the current owner.      * > Note: Renouncing ownership will leave the contract without an owner, thereby removing any functionality that is only available to the owner."
      },
      "transferOwnership(address)": {
        "details": "Transfers ownership of the contract to a new account (`newOwner`). Can only be called by the current owner."
      }
    }
  },
  "userdoc": {
    "methods": {
      "deploy(address,uint256,uint256)": {
        "notice": "// permissioned functions"
      },
      "notifyRewardAmounts()": {
        "notice": "// permissionless functions"
      }
    }
  }
}